8=FIX.4.2|9=67|35=A|34=1|49=server|52=20181022-11:56:35.548|56=client|98=0|108=30|10=029|8=FIX.4.2|9=55|35=0|34=2|49=server|52=20181022-11:57:05.670|56=client|10=235|8=FIX.4.2|9=67|35=A|34=3|49=server|52=20181022-12:29:58.617|56=client|98=0|108=30|10=034|8=FIX.4.2|9=67|35=A|34=4|49=server|52=20181022-12:34:23.841|56=client|98=0|108=30|10=022|8=FIX.4.2|9=55|35=0|34=5|49=server|52=20181022-12:34:54.580|56=client|10=238|8=FIX.4.2|9=67|35=A|34=6|49=server|52=20181022-12:35:33.153|56=client|98=0|108=30|10=022|8=FIX.4.2|9=67|35=A|34=7|49=server|52=20181022-12:36:16.812|56=client|98=0|108=30|10=027|8=FIX.4.2|9=67|35=A|34=8|49=server|52=20181022-12:37:11.297|56=client|98=0|108=30|10=031|8=FIX.4.2|9=55|35=0|34=9|49=server|52=20181022-12:37:41.466|56=client|10=244|8=FIX.4.2|9=68|35=A|34=10|49=server|52=20181022-12:37:50.082|56=client|98=0|108=30|10=068|8=FIX.4.2|9=68|35=A|34=11|49=server|52=20181022-12:38:27.992|56=client|98=0|108=30|10=084|8=FIX.4.2|9=56|35=0|34=12|49=server|52=20181022-12:38:58.351|56=client|10=033|8=FIX.4.2|9=65|35=1|34=13|49=server|52=20181022-12:39:13.349|56=client|112=TEST|10=052|8=FIX.4.2|9=65|35=0|34=14|49=server|52=20181022-12:39:22.478|56=client|112=TEST|10=055|8=FIX.4.2|9=68|35=A|34=15|49=server|52=20181022-12:39:27.135|56=client|98=0|108=30|10=078|8=FIX.4.2|9=56|35=0|34=16|49=server|52=20181022-12:39:57.349|56=client|10=044|8=FIX.4.2|9=68|35=A|34=17|49=server|52=20181022-12:40:14.517|56=client|98=0|108=30|10=072|8=FIX.4.2|9=68|35=A|34=18|49=server|52=20181022-12:40:23.129|56=client|98=0|108=30|10=072|8=FIX.4.2|9=56|35=0|34=19|49=server|52=20181022-12:40:53.349|56=client|10=035|8=FIX.4.2|9=56|35=0|34=20|49=server|52=20181022-12:41:23.349|56=client|10=025|8=FIX.4.2|9=65|35=1|34=21|49=server|52=20181022-12:41:53.349|56=client|112=TEST|10=048|8=FIX.4.2|9=65|35=0|34=22|49=server|52=20181022-12:42:03.566|56=client|112=TEST|10=045|8=FIX.4.2|9=68|35=A|34=23|49=server|52=20181022-12:57:33.774|56=client|98=0|108=90|10=089|8=FIX.4.2|9=68|35=A|34=24|49=server|52=20181022-13:30:52.978|56=client|98=0|108=30|10=083|8=FIX.4.2|9=56|35=0|34=25|49=server|52=20181022-13:31:23.545|56=client|10=028|8=FIX.4.2|9=56|35=0|34=26|49=server|52=20181022-13:31:53.544|56=client|10=031|8=FIX.4.2|9=56|35=0|34=27|49=server|52=20181022-13:32:23.543|56=client|10=029|8=FIX.4.2|9=56|35=0|34=28|49=server|52=20181022-13:32:53.543|56=client|10=033|8=FIX.4.2|9=56|35=0|34=29|49=server|52=20181022-13:33:23.543|56=client|10=032|8=FIX.4.2|9=56|35=0|34=30|49=server|52=20181022-13:33:53.544|56=client|10=028|8=FIX.4.2|9=56|35=0|34=31|49=server|52=20181022-13:34:23.544|56=client|10=027|8=FIX.4.2|9=56|35=0|34=32|49=server|52=20181022-13:34:53.544|56=client|10=031|8=FIX.4.2|9=56|35=0|34=33|49=server|52=20181022-13:35:23.544|56=client|10=030|8=FIX.4.2|9=56|35=0|34=34|49=server|52=20181022-13:35:53.544|56=client|10=034|8=FIX.4.2|9=56|35=0|34=35|49=server|52=20181022-13:36:23.544|56=client|10=033|8=FIX.4.2|9=56|35=0|34=36|49=server|52=20181022-13:36:53.544|56=client|10=037|8=FIX.4.2|9=56|35=0|34=37|49=server|52=20181022-13:37:23.543|56=client|10=035|8=FIX.4.2|9=56|35=0|34=38|49=server|52=20181022-13:37:53.543|56=client|10=039|8=FIX.4.2|9=56|35=0|34=39|49=server|52=20181022-13:38:23.546|56=client|10=041|8=FIX.4.2|9=56|35=0|34=40|49=server|52=20181022-13:38:53.543|56=client|10=033|8=FIX.4.2|9=56|35=0|34=41|49=server|52=20181022-13:39:23.543|56=client|10=032|8=FIX.4.2|9=56|35=0|34=42|49=server|52=20181022-13:39:53.543|56=client|10=036|8=FIX.4.2|9=56|35=0|34=43|49=server|52=20181022-13:40:23.544|56=client|10=027|8=FIX.4.2|9=56|35=0|34=44|49=server|52=20181022-13:40:53.543|56=client|10=030|8=FIX.4.2|9=56|35=0|34=45|49=server|52=20181022-13:41:23.543|56=client|10=029|8=FIX.4.2|9=56|35=0|34=46|49=server|52=20181022-13:41:53.543|56=client|10=033|8=FIX.4.2|9=56|35=0|34=47|49=server|52=20181022-13:42:23.543|56=client|10=032|8=FIX.4.2|9=56|35=0|34=48|49=server|52=20181022-13:42:53.544|56=client|10=037|8=FIX.4.2|9=56|35=0|34=49|49=server|52=20181022-13:43:23.543|56=client|10=035|8=FIX.4.2|9=56|35=0|34=50|49=server|52=20181022-13:43:53.543|56=client|10=030|8=FIX.4.2|9=56|35=0|34=51|49=server|52=20181022-13:44:23.543|56=client|10=029|8=FIX.4.2|9=56|35=0|34=52|49=server|52=20181022-13:44:53.543|56=client|10=033|8=FIX.4.2|9=56|35=0|34=53|49=server|52=20181022-13:45:23.543|56=client|10=032|8=FIX.4.2|9=56|35=0|34=54|49=server|52=20181022-13:45:53.543|56=client|10=036|8=FIX.4.2|9=56|35=0|34=55|49=server|52=20181022-13:46:23.543|56=client|10=035|8=FIX.4.2|9=56|35=0|34=56|49=server|52=20181022-13:46:53.543|56=client|10=039|8=FIX.4.2|9=68|35=A|34=57|49=server|52=20181022-13:48:28.037|56=client|98=0|108=30|10=087|8=FIX.4.2|9=56|35=0|34=58|49=server|52=20181022-13:48:58.504|56=client|10=045|8=FIX.4.2|9=56|35=0|34=59|49=server|52=20181022-13:49:28.502|56=client|10=042|8=FIX.4.2|9=56|35=0|34=60|49=server|52=20181022-13:49:58.502|56=client|10=037|8=FIX.4.2|9=56|35=0|34=61|49=server|52=20181022-13:50:28.502|56=client|10=027|8=FIX.4.2|9=56|35=0|34=62|49=server|52=20181022-13:50:58.502|56=client|10=031|8=FIX.4.2|9=56|35=0|34=63|49=server|52=20181022-13:51:28.502|56=client|10=030|8=FIX.4.2|9=56|35=0|34=64|49=server|52=20181022-13:51:58.502|56=client|10=034|8=FIX.4.2|9=56|35=0|34=65|49=server|52=20181022-13:52:28.502|56=client|10=033|8=FIX.4.2|9=56|35=0|34=66|49=server|52=20181022-13:52:58.502|56=client|10=037|8=FIX.4.2|9=56|35=0|34=67|49=server|52=20181022-13:53:28.502|56=client|10=036|8=FIX.4.2|9=56|35=0|34=68|49=server|52=20181022-13:53:58.502|56=client|10=040|8=FIX.4.2|9=68|35=A|34=69|49=server|52=20181022-14:17:19.747|56=client|98=0|108=30|10=095|8=FIX.4.2|9=68|35=A|34=70|49=server|52=20181022-14:17:22.395|56=client|98=0|108=30|10=080|8=FIX.4.2|9=56|35=0|34=71|49=server|52=20181022-14:17:53.041|56=client|10=028|8=FIX.4.2|9=56|35=0|34=72|49=server|52=20181022-14:18:23.040|56=client|10=026|8=FIX.4.2|9=56|35=0|34=73|49=server|52=20181022-14:18:53.040|56=client|10=030|8=FIX.4.2|9=56|35=0|34=74|49=server|52=20181022-14:19:23.041|56=client|10=030|8=FIX.4.2|9=56|35=0|34=75|49=server|52=20181022-14:19:53.041|56=client|10=034|8=FIX.4.2|9=68|35=A|34=76|49=server|52=20181022-14:21:23.448|56=client|98=0|108=30|10=081|8=FIX.4.2|9=56|35=0|34=77|49=server|52=20181022-14:21:54.061|56=client|10=032|8=FIX.4.2|9=56|35=0|34=78|49=server|52=20181022-14:22:24.060|56=client|10=030|8=FIX.4.2|9=68|35=A|34=79|49=server|52=20181022-14:24:05.354|56=client|98=0|108=30|10=083|8=FIX.4.2|9=56|35=0|34=80|49=server|52=20181022-14:24:35.587|56=client|10=041|8=FIX.4.2|9=56|35=0|34=81|49=server|52=20181022-14:25:05.586|56=client|10=039|8=FIX.4.2|9=56|35=0|34=82|49=server|52=20181022-14:25:35.585|56=client|10=042|8=FIX.4.2|9=56|35=0|34=83|49=server|52=20181022-14:26:05.585|56=client|10=041|8=FIX.4.2|9=56|35=0|34=84|49=server|52=20181022-14:26:35.586|56=client|10=046|8=FIX.4.2|9=56|35=0|34=85|49=server|52=20181022-14:27:05.585|56=client|10=044|8=FIX.4.2|9=56|35=0|34=86|49=server|52=20181022-14:27:35.586|56=client|10=049|8=FIX.4.2|9=56|35=0|34=87|49=server|52=20181022-14:28:05.585|56=client|10=047|8=FIX.4.2|9=56|35=0|34=88|49=server|52=20181022-14:28:35.585|56=client|10=051|8=FIX.4.2|9=56|35=0|34=89|49=server|52=20181022-14:29:05.585|56=client|10=050|8=FIX.4.2|9=56|35=0|34=90|49=server|52=20181022-14:29:35.585|56=client|10=045|8=FIX.4.2|9=56|35=0|34=91|49=server|52=20181022-14:30:05.585|56=client|10=035|8=FIX.4.2|9=56|35=0|34=92|49=server|52=20181022-14:30:35.585|56=client|10=039|8=FIX.4.2|9=56|35=0|34=93|49=server|52=20181022-14:31:05.585|56=client|10=038|8=FIX.4.2|9=56|35=0|34=94|49=server|52=20181022-14:31:35.585|56=client|10=042|8=FIX.4.2|9=56|35=0|34=95|49=server|52=20181022-14:32:05.585|56=client|10=041|8=FIX.4.2|9=56|35=0|34=96|49=server|52=20181022-14:32:35.585|56=client|10=045|8=FIX.4.2|9=56|35=0|34=97|49=server|52=20181022-14:33:05.585|56=client|10=044|8=FIX.4.2|9=56|35=0|34=98|49=server|52=20181022-14:33:35.585|56=client|10=048|8=FIX.4.2|9=56|35=0|34=99|49=server|52=20181022-14:34:05.585|56=client|10=047|8=FIX.4.2|9=57|35=0|34=100|49=server|52=20181022-14:34:35.585|56=client|10=082|8=FIX.4.2|9=69|35=A|34=101|49=server|52=20181022-14:35:47.215|56=client|98=0|108=30|10=122|8=FIX.4.2|9=57|35=0|34=102|49=server|52=20181022-14:36:18.033|56=client|10=075|8=FIX.4.2|9=57|35=0|34=103|49=server|52=20181022-14:36:48.032|56=client|10=078|8=FIX.4.2|9=57|35=0|34=104|49=server|52=20181022-14:37:18.032|56=client|10=077|8=FIX.4.2|9=57|35=0|34=105|49=server|52=20181022-14:37:48.032|56=client|10=081|8=FIX.4.2|9=57|35=0|34=106|49=server|52=20181022-14:38:18.032|56=client|10=080|8=FIX.4.2|9=57|35=0|34=107|49=server|52=20181022-14:38:48.032|56=client|10=084|8=FIX.4.2|9=57|35=0|34=108|49=server|52=20181022-14:39:18.032|56=client|10=083|8=FIX.4.2|9=57|35=0|34=109|49=server|52=20181022-14:39:48.032|56=client|10=087|8=FIX.4.2|9=57|35=0|34=110|49=server|52=20181022-14:40:18.032|56=client|10=068|