8=FIX.4.2|9=67|35=A|34=1|49=client|52=20181022-11:56:35.510|56=server|98=0|108=30|10=018|8=FIX.4.2|9=55|35=0|34=2|49=client|52=20181022-11:57:05.675|56=server|10=240|8=FIX.4.2|9=67|35=A|34=3|49=client|52=20181022-12:29:58.579|56=server|98=0|108=30|10=041|8=FIX.4.2|9=122|35=D|34=4|49=client|52=20181022-12:29:59.586|56=server|11=CLIENT_ORDER_ID|21=1|40=1|54=1|55=GOOG|60=20181022-15:29:59.584|10=149|8=FIX.4.2|9=67|35=A|34=5|49=client|52=20181022-12:34:23.801|56=server|98=0|108=30|10=019|8=FIX.4.2|9=133|35=D|34=6|49=client|52=20181022-12:34:24.821|56=server|11=CLIENT_ORDER_ID|21=1|40=1|54=1|55=JULIA ...JULIAA|60=20181022-15:34:24.819|10=035|8=FIX.4.2|9=55|35=0|34=7|49=client|52=20181022-12:34:55.775|56=server|10=247|8=FIX.4.2|9=67|35=A|34=8|49=client|52=20181022-12:35:33.126|56=server|98=0|108=30|10=024|8=FIX.4.2|9=172|35=D|34=9|49=client|52=20181022-12:35:34.133|56=server|11=CLIENT_ORDER_ID|21=1|40=1|54=1|55=JULIA ...JULIAA111111111111111111111111111111111111111|60=20181022-15:35:34.132|10=148|8=FIX.4.2|9=68|35=A|34=10|49=client|52=20181022-12:36:16.774|56=server|98=0|108=30|10=077|8=FIX.4.2|9=174|35=D|34=11|49=client|52=20181022-12:36:17.786|56=server|11=CLIENT_ORDER_ID|21=1|40=1|54=1|55=JULIA ...JULIAA1111111111111111111111111111111111111112|60=20181022-15:36:17.784|10=016|8=FIX.4.2|9=68|35=A|34=12|49=client|52=20181022-12:37:11.260|56=server|98=0|108=30|10=065|8=FIX.4.2|9=175|35=D|34=13|49=client|52=20181022-12:37:12.272|56=server|11=CLIENT_ORDER_ID|21=1|40=1|54=1|55=JULIA ...JULIAA11111111111111111111111111111111111111121|60=20181022-15:37:12.270|10=040|8=FIX.4.2|9=56|35=0|34=14|49=client|52=20181022-12:37:43.232|56=server|10=026|8=FIX.4.2|9=68|35=A|34=15|49=client|52=20181022-12:37:50.066|56=server|98=0|108=30|10=075|8=FIX.4.2|9=120|35=D|34=16|49=client|52=20181022-12:37:51.078|56=server|11=CLIENT_ORDER_ID|21=1|40=1|54=1|55=4|60=20181022-15:37:51.076|10=180|8=FIX.4.2|9=68|35=A|34=17|49=client|52=20181022-12:38:27.957|56=server|98=0|108=30|10=091|8=FIX.4.2|9=120|35=D|34=18|49=client|52=20181022-12:39:22.445|56=server|11=CLIENT_ORDER_ID|21=1|40=1|54=1|55=4|60=20181022-15:38:39.244|10=184|8=FIX.4.2|9=65|35=1|34=19|49=client|52=20181022-12:39:22.450|56=server|112=TEST|10=051|8=FIX.4.2|9=65|35=0|34=20|49=client|52=20181022-12:39:22.457|56=server|112=TEST|10=049|8=FIX.4.2|9=68|35=A|34=21|49=client|52=20181022-12:39:27.128|56=server|98=0|108=30|10=077|8=FIX.4.2|9=66|35=2|34=22|49=client|52=20181022-12:39:27.145|56=server|7=14|16=0|10=210|8=FIX.4.2|9=120|35=D|34=23|49=client|52=20181022-12:40:03.110|56=server|11=CLIENT_ORDER_ID|21=1|40=1|54=1|55=4|60=20181022-15:39:57.115|10=158|8=FIX.4.2|9=68|35=A|34=24|49=client|52=20181022-12:40:14.502|56=server|98=0|108=30|10=064|8=FIX.4.2|9=120|35=D|34=25|49=client|52=20181022-12:40:15.483|56=server|11=CLIENT_ORDER_ID|21=1|40=1|54=1|55=4|60=20181022-15:40:15.482|10=169|8=FIX.4.2|9=68|35=A|34=26|49=client|52=20181022-12:40:23.114|56=server|98=0|108=30|10=065|8=FIX.4.2|9=56|35=0|34=27|49=client|52=20181022-12:41:07.876|56=server|10=039|8=FIX.4.2|9=65|35=1|34=28|49=client|52=20181022-12:42:03.562|56=server|112=TEST|10=048|8=FIX.4.2|9=120|35=D|34=29|49=client|52=20181022-12:42:03.565|56=server|11=CLIENT_ORDER_ID|21=1|40=1|54=1|55=4|60=20181022-15:41:07.899|10=187|8=FIX.4.2|9=65|35=0|34=30|49=client|52=20181022-12:42:03.573|56=server|112=TEST|10=042|8=FIX.4.2|9=68|35=A|34=31|49=client|52=20181022-12:57:33.738|56=server|98=0|108=90|10=088|8=FIX.4.2|9=120|35=D|34=32|49=client|52=20181022-12:57:34.754|56=server|11=CLIENT_ORDER_ID|21=1|40=1|54=1|55=4|60=20181022-15:57:34.752|10=186|8=FIX.4.2|9=68|35=A|34=33|49=client|52=20181022-13:30:52.943|56=server|98=0|108=30|10=075|8=FIX.4.2|9=120|35=D|34=34|49=client|52=20181022-13:30:53.954|56=server|11=CLIENT_ORDER_ID|21=1|40=1|54=1|55=4|60=20181022-16:30:53.952|10=178|8=FIX.4.2|9=56|35=0|34=35|49=client|52=20181022-13:31:24.915|56=server|10=031|8=FIX.4.2|9=56|35=0|34=36|49=client|52=20181022-13:31:54.915|56=server|10=035|8=FIX.4.2|9=56|35=0|34=37|49=client|52=20181022-13:32:24.915|56=server|10=034|8=FIX.4.2|9=56|35=0|34=38|49=client|52=20181022-13:32:54.914|56=server|10=037|8=FIX.4.2|9=56|35=0|34=39|49=client|52=20181022-13:33:24.915|56=server|10=037|8=FIX.4.2|9=56|35=0|34=40|49=client|52=20181022-13:33:54.915|56=server|10=032|8=FIX.4.2|9=56|35=0|34=41|49=client|52=20181022-13:34:24.915|56=server|10=031|8=FIX.4.2|9=56|35=0|34=42|49=client|52=20181022-13:34:54.915|56=server|10=035|8=FIX.4.2|9=56|35=0|34=43|49=client|52=20181022-13:35:24.915|56=server|10=034|8=FIX.4.2|9=56|35=0|34=44|49=client|52=20181022-13:35:54.915|56=server|10=038|8=FIX.4.2|9=56|35=0|34=45|49=client|52=20181022-13:36:24.915|56=server|10=037|8=FIX.4.2|9=56|35=0|34=46|49=client|52=20181022-13:36:54.914|56=server|10=040|8=FIX.4.2|9=56|35=0|34=47|49=client|52=20181022-13:37:24.915|56=server|10=040|8=FIX.4.2|9=56|35=0|34=48|49=client|52=20181022-13:37:54.915|56=server|10=044|8=FIX.4.2|9=56|35=0|34=49|49=client|52=20181022-13:38:24.915|56=server|10=043|8=FIX.4.2|9=56|35=0|34=50|49=client|52=20181022-13:38:54.915|56=server|10=038|8=FIX.4.2|9=56|35=0|34=51|49=client|52=20181022-13:39:24.915|56=server|10=037|8=FIX.4.2|9=56|35=0|34=52|49=client|52=20181022-13:39:54.915|56=server|10=041|8=FIX.4.2|9=56|35=0|34=53|49=client|52=20181022-13:40:24.914|56=server|10=030|8=FIX.4.2|9=56|35=0|34=54|49=client|52=20181022-13:40:54.915|56=server|10=035|8=FIX.4.2|9=56|35=0|34=55|49=client|52=20181022-13:41:24.915|56=server|10=034|8=FIX.4.2|9=56|35=0|34=56|49=client|52=20181022-13:41:54.915|56=server|10=038|8=FIX.4.2|9=56|35=0|34=57|49=client|52=20181022-13:42:24.914|56=server|10=036|8=FIX.4.2|9=56|35=0|34=58|49=client|52=20181022-13:42:54.914|56=server|10=040|8=FIX.4.2|9=56|35=0|34=59|49=client|52=20181022-13:43:24.914|56=server|10=039|8=FIX.4.2|9=56|35=0|34=60|49=client|52=20181022-13:43:54.915|56=server|10=035|8=FIX.4.2|9=56|35=0|34=61|49=client|52=20181022-13:44:24.915|56=server|10=034|8=FIX.4.2|9=56|35=0|34=62|49=client|52=20181022-13:44:54.914|56=server|10=037|8=FIX.4.2|9=56|35=0|34=63|49=client|52=20181022-13:45:24.914|56=server|10=036|8=FIX.4.2|9=56|35=0|34=64|49=client|52=20181022-13:45:54.914|56=server|10=040|8=FIX.4.2|9=56|35=0|34=65|49=client|52=20181022-13:46:24.915|56=server|10=040|8=FIX.4.2|9=56|35=0|34=66|49=client|52=20181022-13:46:54.915|56=server|10=044|8=FIX.4.2|9=68|35=A|34=67|49=client|52=20181022-13:48:27.999|56=server|98=0|108=30|10=104|8=FIX.4.2|9=120|35=D|34=68|49=client|52=20181022-13:48:29.010|56=server|11=CLIENT_ORDER_ID|21=1|40=1|54=1|55=4|60=20181022-16:48:29.008|10=184|8=FIX.4.2|9=56|35=0|34=69|49=client|52=20181022-13:48:59.971|56=server|10=056|8=FIX.4.2|9=56|35=0|34=70|49=client|52=20181022-13:49:29.971|56=server|10=046|8=FIX.4.2|9=56|35=0|34=71|49=client|52=20181022-13:49:59.971|56=server|10=050|8=FIX.4.2|9=56|35=0|34=72|49=client|52=20181022-13:50:29.971|56=server|10=040|8=FIX.4.2|9=56|35=0|34=73|49=client|52=20181022-13:50:59.971|56=server|10=044|8=FIX.4.2|9=56|35=0|34=74|49=client|52=20181022-13:51:29.972|56=server|10=044|8=FIX.4.2|9=56|35=0|34=75|49=client|52=20181022-13:51:59.971|56=server|10=047|8=FIX.4.2|9=56|35=0|34=76|49=client|52=20181022-13:52:29.972|56=server|10=047|8=FIX.4.2|9=56|35=0|34=77|49=client|52=20181022-13:52:59.972|56=server|10=051|8=FIX.4.2|9=56|35=0|34=78|49=client|52=20181022-13:53:29.971|56=server|10=049|8=FIX.4.2|9=56|35=0|34=79|49=client|52=20181022-13:53:59.971|56=server|10=053|8=FIX.4.2|9=68|35=A|34=80|49=client|52=20181022-14:17:19.715|56=server|98=0|108=30|10=083|8=FIX.4.2|9=68|35=A|34=81|49=client|52=20181022-14:17:22.378|56=server|98=0|108=30|10=083|8=FIX.4.2|9=120|35=D|34=82|49=client|52=20181022-14:17:23.389|56=server|11=CLIENT_ORDER_ID|21=1|40=1|54=1|55=4|60=20181022-17:17:23.387|10=191|8=FIX.4.2|9=56|35=0|34=83|49=client|52=20181022-14:17:54.356|56=server|10=041|8=FIX.4.2|9=56|35=0|34=84|49=client|52=20181022-14:18:24.357|56=server|10=041|8=FIX.4.2|9=56|35=0|34=85|49=client|52=20181022-14:18:54.356|56=server|10=044|8=FIX.4.2|9=56|35=0|34=86|49=client|52=20181022-14:19:24.357|56=server|10=044|8=FIX.4.2|9=56|35=0|34=87|49=client|52=20181022-14:19:54.357|56=server|10=048|8=FIX.4.2|9=68|35=A|34=88|49=client|52=20181022-14:21:23.410|56=server|98=0|108=30|10=073|8=FIX.4.2|9=120|35=D|34=89|49=client|52=20181022-14:21:24.422|56=server|11=CLIENT_ORDER_ID|21=1|40=1|54=1|55=4|60=20181022-17:21:24.420|10=166|8=FIX.4.2|9=56|35=0|34=90|49=client|52=20181022-14:21:55.382|56=server|10=034|8=FIX.4.2|9=56|35=0|34=91|49=client|52=20181022-14:22:25.382|56=server|10=033|8=FIX.4.2|9=68|35=A|34=92|49=client|52=20181022-14:24:05.320|56=server|98=0|108=30|10=071|8=FIX.4.2|9=107|35=D|34=93|49=client|52=20181022-14:24:06.328|56=server|11=JU|21=1|40=1|54=1|55=4|60=20181022-17:24:06.326|10=207|8=FIX.4.2|9=56|35=0|34=94|49=client|52=20181022-14:24:37.288|56=server|10=046|8=FIX.4.2|9=56|35=0|34=95|49=client|52=20181022-14:25:07.287|56=server|10=044|8=FIX.4.2|9=56|35=0|34=96|49=client|52=20181022-14:25:37.287|56=server|10=048|8=FIX.4.2|9=56|35=0|34=97|49=client|52=20181022-14:26:07.287|56=server|10=047|8=FIX.4.2|9=56|35=0|34=98|49=client|52=20181022-14:26:37.287|56=server|10=051|8=FIX.4.2|9=56|35=0|34=99|49=client|52=20181022-14:27:07.287|56=server|10=050|8=FIX.4.2|9=57|35=0|34=100|49=client|52=20181022-14:27:37.287|56=server|10=085|8=FIX.4.2|9=57|35=0|34=101|49=client|52=20181022-14:28:07.287|56=server|10=084|8=FIX.4.2|9=57|35=0|34=102|49=client|52=20181022-14:28:37.287|56=server|10=088|8=FIX.4.2|9=57|35=0|34=103|49=client|52=20181022-14:29:07.287|56=server|10=087|8=FIX.4.2|9=57|35=0|34=104|49=client|52=20181022-14:29:37.287|56=server|10=091|8=FIX.4.2|9=57|35=0|34=105|49=client|52=20181022-14:30:07.287|56=server|10=081|8=FIX.4.2|9=57|35=0|34=106|49=client|52=20181022-14:30:37.287|56=server|10=085|8=FIX.4.2|9=57|35=0|34=107|49=client|52=20181022-14:31:07.287|56=server|10=084|8=FIX.4.2|9=57|35=0|34=108|49=client|52=20181022-14:31:37.287|56=server|10=088|8=FIX.4.2|9=57|35=0|34=109|49=client|52=20181022-14:32:07.287|56=server|10=087|8=FIX.4.2|9=57|35=0|34=110|49=client|52=20181022-14:32:37.287|56=server|10=082|8=FIX.4.2|9=57|35=0|34=111|49=client|52=20181022-14:33:07.287|56=server|10=081|8=FIX.4.2|9=57|35=0|34=112|49=client|52=20181022-14:33:37.287|56=server|10=085|8=FIX.4.2|9=57|35=0|34=113|49=client|52=20181022-14:34:07.287|56=server|10=084|8=FIX.4.2|9=57|35=0|34=114|49=client|52=20181022-14:34:37.287|56=server|10=088|8=FIX.4.2|9=69|35=A|34=115|49=client|52=20181022-14:35:47.177|56=server|98=0|108=30|10=134|8=FIX.4.2|9=126|35=D|34=116|49=client|52=20181022-14:35:48.191|56=server|11=CLIENT_ORDER_ID|21=1|40=1|54=1|55=BTCUSD|60=20181022-17:35:48.189|10=137|8=FIX.4.2|9=57|35=0|34=117|49=client|52=20181022-14:36:19.148|56=server|10=089|8=FIX.4.2|9=57|35=0|34=118|49=client|52=20181022-14:36:49.148|56=server|10=093|8=FIX.4.2|9=57|35=0|34=119|49=client|52=20181022-14:37:19.148|56=server|10=092|8=FIX.4.2|9=57|35=0|34=120|49=client|52=20181022-14:37:49.148|56=server|10=087|8=FIX.4.2|9=57|35=0|34=121|49=client|52=20181022-14:38:19.148|56=server|10=086|8=FIX.4.2|9=57|35=0|34=122|49=client|52=20181022-14:38:49.148|56=server|10=090|8=FIX.4.2|9=57|35=0|34=123|49=client|52=20181022-14:39:19.148|56=server|10=089|8=FIX.4.2|9=57|35=0|34=124|49=client|52=20181022-14:39:49.148|56=server|10=093|8=FIX.4.2|9=57|35=0|34=125|49=client|52=20181022-14:40:19.148|56=server|10=083|