8=FIX.4.2|9=67|35=A|34=1|49=client|52=20181022-11:56:35.510|56=server|98=0|108=30|10=018|8=FIX.4.2|9=55|35=0|34=2|49=client|52=20181022-11:57:05.675|56=server|10=240|8=FIX.4.2|9=67|35=A|34=3|49=client|52=20181022-12:29:58.579|56=server|98=0|108=30|10=041|8=FIX.4.2|9=122|35=D|34=4|49=client|52=20181022-12:29:59.586|56=server|11=CLIENT_ORDER_ID|21=1|40=1|54=1|55=GOOG|60=20181022-15:29:59.584|10=149|8=FIX.4.2|9=67|35=A|34=5|49=client|52=20181022-12:34:23.801|56=server|98=0|108=30|10=019|8=FIX.4.2|9=133|35=D|34=6|49=client|52=20181022-12:34:24.821|56=server|11=CLIENT_ORDER_ID|21=1|40=1|54=1|55=JULIA ...JULIAA|60=20181022-15:34:24.819|10=035|8=FIX.4.2|9=55|35=0|34=7|49=client|52=20181022-12:34:55.775|56=server|10=247|8=FIX.4.2|9=67|35=A|34=8|49=client|52=20181022-12:35:33.126|56=server|98=0|108=30|10=024|8=FIX.4.2|9=172|35=D|34=9|49=client|52=20181022-12:35:34.133|56=server|11=CLIENT_ORDER_ID|21=1|40=1|54=1|55=JULIA ...JULIAA111111111111111111111111111111111111111|60=20181022-15:35:34.132|10=148|8=FIX.4.2|9=68|35=A|34=10|49=client|52=20181022-12:36:16.774|56=server|98=0|108=30|10=077|8=FIX.4.2|9=174|35=D|34=11|49=client|52=20181022-12:36:17.786|56=server|11=CLIENT_ORDER_ID|21=1|40=1|54=1|55=JULIA ...JULIAA1111111111111111111111111111111111111112|60=20181022-15:36:17.784|10=016|8=FIX.4.2|9=68|35=A|34=12|49=client|52=20181022-12:37:11.260|56=server|98=0|108=30|10=065|8=FIX.4.2|9=175|35=D|34=13|49=client|52=20181022-12:37:12.272|56=server|11=CLIENT_ORDER_ID|21=1|40=1|54=1|55=JULIA ...JULIAA11111111111111111111111111111111111111121|60=20181022-15:37:12.270|10=040|8=FIX.4.2|9=56|35=0|34=14|49=client|52=20181022-12:37:43.232|56=server|10=026|8=FIX.4.2|9=68|35=A|34=15|49=client|52=20181022-12:37:50.066|56=server|98=0|108=30|10=075|8=FIX.4.2|9=120|35=D|34=16|49=client|52=20181022-12:37:51.078|56=server|11=CLIENT_ORDER_ID|21=1|40=1|54=1|55=4|60=20181022-15:37:51.076|10=180|8=FIX.4.2|9=68|35=A|34=17|49=client|52=20181022-12:38:27.957|56=server|98=0|108=30|10=091|8=FIX.4.2|9=120|35=D|34=18|49=client|52=20181022-12:39:22.445|56=server|11=CLIENT_ORDER_ID|21=1|40=1|54=1|55=4|60=20181022-15:38:39.244|10=184|8=FIX.4.2|9=65|35=1|34=19|49=client|52=20181022-12:39:22.450|56=server|112=TEST|10=051|8=FIX.4.2|9=65|35=0|34=20|49=client|52=20181022-12:39:22.457|56=server|112=TEST|10=049|8=FIX.4.2|9=68|35=A|34=21|49=client|52=20181022-12:39:27.128|56=server|98=0|108=30|10=077|8=FIX.4.2|9=66|35=2|34=22|49=client|52=20181022-12:39:27.145|56=server|7=14|16=0|10=210|8=FIX.4.2|9=120|35=D|34=23|49=client|52=20181022-12:40:03.110|56=server|11=CLIENT_ORDER_ID|21=1|40=1|54=1|55=4|60=20181022-15:39:57.115|10=158|8=FIX.4.2|9=68|35=A|34=24|49=client|52=20181022-12:40:14.502|56=server|98=0|108=30|10=064|8=FIX.4.2|9=120|35=D|34=25|49=client|52=20181022-12:40:15.483|56=server|11=CLIENT_ORDER_ID|21=1|40=1|54=1|55=4|60=20181022-15:40:15.482|10=169|8=FIX.4.2|9=68|35=A|34=26|49=client|52=20181022-12:40:23.114|56=server|98=0|108=30|10=065|8=FIX.4.2|9=56|35=0|34=27|49=client|52=20181022-12:41:07.876|56=server|10=039|8=FIX.4.2|9=65|35=1|34=28|49=client|52=20181022-12:42:03.562|56=server|112=TEST|10=048|8=FIX.4.2|9=120|35=D|34=29|49=client|52=20181022-12:42:03.565|56=server|11=CLIENT_ORDER_ID|21=1|40=1|54=1|55=4|60=20181022-15:41:07.899|10=187|8=FIX.4.2|9=65|35=0|34=30|49=client|52=20181022-12:42:03.573|56=server|112=TEST|10=042|8=FIX.4.2|9=68|35=A|34=31|49=client|52=20181022-12:57:33.738|56=server|98=0|108=90|10=088|8=FIX.4.2|9=120|35=D|34=32|49=client|52=20181022-12:57:34.754|56=server|11=CLIENT_ORDER_ID|21=1|40=1|54=1|55=4|60=20181022-15:57:34.752|10=186|