8=FIX.4.2|9=67|35=A|34=1|49=server|52=20181022-11:56:35.548|56=client|98=0|108=30|10=029|8=FIX.4.2|9=55|35=0|34=2|49=server|52=20181022-11:57:05.670|56=client|10=235|8=FIX.4.2|9=67|35=A|34=3|49=server|52=20181022-12:29:58.617|56=client|98=0|108=30|10=034|8=FIX.4.2|9=67|35=A|34=4|49=server|52=20181022-12:34:23.841|56=client|98=0|108=30|10=022|8=FIX.4.2|9=55|35=0|34=5|49=server|52=20181022-12:34:54.580|56=client|10=238|8=FIX.4.2|9=67|35=A|34=6|49=server|52=20181022-12:35:33.153|56=client|98=0|108=30|10=022|8=FIX.4.2|9=67|35=A|34=7|49=server|52=20181022-12:36:16.812|56=client|98=0|108=30|10=027|8=FIX.4.2|9=67|35=A|34=8|49=server|52=20181022-12:37:11.297|56=client|98=0|108=30|10=031|8=FIX.4.2|9=55|35=0|34=9|49=server|52=20181022-12:37:41.466|56=client|10=244|8=FIX.4.2|9=68|35=A|34=10|49=server|52=20181022-12:37:50.082|56=client|98=0|108=30|10=068|8=FIX.4.2|9=68|35=A|34=11|49=server|52=20181022-12:38:27.992|56=client|98=0|108=30|10=084|8=FIX.4.2|9=56|35=0|34=12|49=server|52=20181022-12:38:58.351|56=client|10=033|8=FIX.4.2|9=65|35=1|34=13|49=server|52=20181022-12:39:13.349|56=client|112=TEST|10=052|8=FIX.4.2|9=65|35=0|34=14|49=server|52=20181022-12:39:22.478|56=client|112=TEST|10=055|8=FIX.4.2|9=68|35=A|34=15|49=server|52=20181022-12:39:27.135|56=client|98=0|108=30|10=078|8=FIX.4.2|9=56|35=0|34=16|49=server|52=20181022-12:39:57.349|56=client|10=044|8=FIX.4.2|9=68|35=A|34=17|49=server|52=20181022-12:40:14.517|56=client|98=0|108=30|10=072|8=FIX.4.2|9=68|35=A|34=18|49=server|52=20181022-12:40:23.129|56=client|98=0|108=30|10=072|8=FIX.4.2|9=56|35=0|34=19|49=server|52=20181022-12:40:53.349|56=client|10=035|8=FIX.4.2|9=56|35=0|34=20|49=server|52=20181022-12:41:23.349|56=client|10=025|8=FIX.4.2|9=65|35=1|34=21|49=server|52=20181022-12:41:53.349|56=client|112=TEST|10=048|8=FIX.4.2|9=65|35=0|34=22|49=server|52=20181022-12:42:03.566|56=client|112=TEST|10=045|8=FIX.4.2|9=68|35=A|34=23|49=server|52=20181022-12:57:33.774|56=client|98=0|108=90|10=089|